:020000040800F2
:10000000E87D002059020008610200086302000830
:10001000650200086702000869020008000000008D
:100020000000000000000000000000009D0100082A
:100030006D02000800000000F1010008A91100088D
:1000400073020008730200087302000873020008BC
:1000500073020008730200087302000873020008AC
:10006000730200087302000873020008730200089C
:10007000730200087302000873020008730200088C
:10008000730200087302000873020008730200087C
:10009000730200087302000873020008730200086C
:1000A00073020008A9120008730200087302000816
:1000B000730200087302000873020008730200084C
:1000C000730200087302000873020008730200083C
:1000D000730200087302000873020008730200082C
:1000E000730200087302000873020008730200081C
:1000F000730200087302000873020008730200080C
:1001000073020008730200087302000873020008FB
:1001100073020008730200087302000873020008EB
:1001200073020008730200087302000873020008DB
:1001300073020008730200087302000873020008CB
:1001400073020008730200087302000873020008BB
:1001500073020008730200087302000873020008AB
:10016000730200087302000873020008730200089B
:100170007302000873020008730200080000000008
:100180007302000873020008DFF80CD000F0D8F802
:100190000048004795130008E87D00202B4B1968A4
:1001A0000868B0E8F04F80F30988BFF36F8F4FF015
:1001B000000080F3118870470000000006480068C6
:1001C000006880F3088862B661B6BFF34F8FBFF353
:1001D0006F8F00DF00BF00BF08ED00E0DFF80C000C
:1001E000016841F470010160704700BF88ED00E0D4
:1001F000EFF30980BFF36F8F144B1A681EF0100FD6
:1002000008BF20ED108A20E9F04F106008B44FF0CD
:10021000500080F31188BFF34F8FBFF36F8F01F051
:1002200039FC4FF0000080F3118808BC1968086899
:10023000B0E8F04F1EF0100F08BFB0EC108A80F34A
:100240000988BFF36F8F704700BF00BF4C000020CC
:10025000EFF30580704700000648804706480047D6
:10026000FEE7FEE7FEE7FEE7FEE7FEE7FEE7FEE766
:10027000FEE7FEE755120008890100082DE9F05F4E
:100280000546002092469B46884606468146402405
:100290001BE0284641464746224600F041F85346B7
:1002A0005A46C01A914110D311461846224600F012
:1002B00028F82D1A67EB01084F462246012000213D
:1002C00000F01FF817EB00094E41201EA4F10104B5
:1002D000DFDC484631462A464346BDE8F09F40EA07
:1002E00001039B0703D009E008C9121F08C0042AB4
:1002F000FAD203E011F8013B00F8013B521EF9D29B
:100300007047202A04DB203A00FA02F100207047EF
:100310009140C2F1200320FA03F319439040704743
:10032000202A04DB203A21FA02F00021704721FA4A
:1003300002F3D040C2F120029140084319467047B1
:10034000064C074D06E0E06840F0010394E8070022
:1003500098471034AC42F6D3FFF71AFFA01F0008ED
:10036000C01F000870B5040003D094F8200010B13D
:1003700004E0012070BD204600F082F8206801688A
:1003800021F00201016000F0A1F90546052604E014
:1003900000F09CF9401B0A2811D8206840688007AB
:1003A000F6D42068016841F00101016000F08EF987
:1003B00005460BE000F08AF9401B0A2806D9606A5E
:1003C00040F40030606284F82060D2E72068406822
:1003D000C007EFD0207E0128206801683DD021F0C1
:1003E00080010160607E01282068016838D021F01A
:1003F00040010160A07E01282068016833D021F00F
:1004000020010160E07E0128206801682ED041F0C3
:1004100010010160207F01282068016829D021F0A7
:1004200008010160607F01282068016824D021F064
:1004300004010160D4E902010843D4E90412114324
:1004400008436168491E08432168C8610020606252
:10045000012084F82000002070BD41F08001C0E739
:1004600041F04001C5E741F02001CAE721F0100149
:10047000CFE741F00801D4E741F00401D9E70000DB
:1004800000B500680E4987B0884217D10D48002199
:10049000026842F000720260006800F0007005908F
:1004A0004FF4C05000900220CDE9010103200390D9
:1004B000092004906946044800F030F807B000BDF8
:1004C00000640040403802400000024010B50400C3
:1004D00002D0607910B106E0012010BD002020712B
:1004E000204600F007F802206071012060710020B2
:1004F00010BD000008B500680649884208D10648CA
:10050000016841F480510160006800F4805000905F
:1005100008BD000000300240303802402DE9F84F9D
:10052000DFF87CB100224FF001084FF0030A4FF0D2
:100530000F090BF1040E00BF0B6808FA02F4234008
:10054000A3426ED14D68022D01D0122D0ED1D508D7
:1005500000EB850CDCF820505607F70E09FA07F679
:10056000B5430E69BE402E43CCF8206006685500A6
:100570000F790AFA05FC07F0030726EA0C06AF40DC
:10058000374307604E68012E05D0022E03D0112E8E
:1005900001D0122E0ED18668CF6826EA0C06AF4035
:1005A000374387604668A6430C79C4F3001494402F
:1005B00034434460C6688C6826EA0C06AC40344379
:1005C000C4604C68E40065D5364C256845F4804528
:1005D0002560246822F0030504F480440094324C22
:1005E0002E19D6F8084895072F0F09FA07F5AC43DE
:1005F0002E4DA84201D1002524E02D4DA84201D165
:1006000001251FE02B4DA84201D102251AE02A4DF9
:10061000A84201D1032515E0284DA84202D10425A6
:1006200010E037E0264DA84201D105250AE0254D0E
:10063000A84201D1062505E0234DA84201D1072596
:1006400000E00825BD402543C6F80858DBF8004007
:100650005D464E689C43F60300D51C432C60DEF8D3
:10066000004075464E689C43B60300D51C432C6081
:100670000B4D08352C684E689C43F60200D51C4390
:100680002C60074D0C352C684E689C43B60200D593
:100690001C432C60521C102AFFF44EAFBDE8F88FAB
:1006A000003C01404438024000300140000002405C
:1006B0000004024000080240000C0240001002400A
:1006C0000014024000180240001C024001488068EB
:1006D000704700001800002070B5040011D0216898
:1006E0004CF6CC400860216845F255500860D4E9CA
:1006F000000141602168A0688860FFF7E7FF0546B8
:1007000009E0012070BD00BFFFF7E0FF401B30286B
:1007100001D9032070BD2068C0680028F4D1216889
:100720004AF6AA200860002070BD000002488168D7
:100730000278114481607047180000200B4810B502
:10074000016841F400710160016841F48061016059
:10075000016841F480710160032000F0B1F80020CD
:1007600000F006F800F03EF8002010BD003C02400A
:1007700010B5014688B00022192000F081F8192038
:1007800000F072F813480024016841F00101016093
:10079000006805A900F001000690684600F03AF9EB
:1007A00000F05EF90C494000B0FBF1F10C480B4A37
:1007B000491E026040F2E732C0E90324C0E9011497
:1007C00000F03EFB10B1012008B010BD044800F05D
:1007D00053FBF9E74438024040420F00000001405B
:1007E000BC0000201F4808B5016841F48041016049
:1007F000006800F4804000901A48001F016841F032
:1008000080510160006800F080500090032000F0EB
:1008100057F8002211466FF00B0000F031F800226B
:1008200011466FF00A0000F02BF8002211466FF01D
:10083000090000F025F800221146501F00F020F8B2
:1008400000221146101F00F01BF800220F21901EFD
:1008500000F016F800220F21BDE80840501E00F0FD
:100860000FB800004438024000F01F0201219140FF
:100870004009800000F1E020C0F80011704700003E
:10088000F0B40E4B1B680C46C3F30223C3F10705FB
:10089000042D00D90425191D072901D2002300E0E9
:1008A000DB1E012606FA05F1491E214099409E40B3
:1008B000761E16403143F0BC00F05EBC0CED00E04B
:1008C000064900F0070208684FF6FF03184040EAA7
:1008D0000220034A10430860704700000CED00E05E
:1008E0000000FA052DE9F0470E46050065D0DFF857
:1008F0001481D8F80000F7B200F00F00B04207D220
:1009000088F80070D8F8000000F00F00B04254D111
:1009100028683D4C810712D5400703D5206840F474
:10092000E05020602878000703D5206840F460403C
:1009300020602068A96820F0F00008432060287833
:10094000C0072DD0304968680839012812D0022824
:1009500013D0032811D00968890700292DDA2168EE
:1009600021F0030101432160FFF7B0FE814641F20F
:10097000883A0EE009688903EFE709688901ECE726
:10098000FFF7A4FEA0EB0901514502D90320BDE801
:10099000F0872068696800F00C00B0EB810FEFD1A0
:1009A000D8F80010404601F00F01B14207D9077096
:1009B000006800F00F00B04201D00120E7E728787E
:1009C000400705D52068E96820F4E050084320601E
:1009D0002878000706D52068296920F4604040EA9D
:1009E000C100206000F04CF82168084AC1F30311EF
:1009F000515CC840064908600020FFF7B9FE00209E
:100A0000C5E70000003C024008380240781F00089B
:100A1000240000200F2202600C4A136803F0030335
:100A20004360136803F0F0038360136803F4E0533A
:100A3000C36012684FF4E05303EAD2020261044833
:100A4000006800F00F00086070470000083802409E
:100A5000003C02400148006870470000240000206C
:100A60000448054900680968044AC1F34231515CF1
:100A7000C84070472400002008380240881F000842
:100A8000154810B5006810F00C02144813D041103E
:100A9000042A0FD0082A0ED10F4C241F2268236885
:100AA00002F03F025B0207D52068C0F38810A0FB6C
:100AB000010106E0084610BD2168C1F38811A1FBC1
:100AC00000010023FFF7DAFB2168C1F30141491C53
:100AD0004900B0FBF1F010BD083802400024F400DA
:100AE0002DE9F84F050076D02878DFF8F8B2BE4C33
:100AF000C00749D0DBF800105846C1F38101012935
:100B000008D00068C0F3810002280AD1201D0068C7
:100B1000400206D52068800336D568680028E2D0F8
:100B200032E06868B0F5803F10D0B0F5A02F2068A3
:100B300010D020F480302060206820F480202060D5
:100B40006868A0B1FFF7C2FD06460CE0206840F4DB
:100B50008030F4E740F480202060F7E7FFF7B6FD2F
:100B6000801B642873D820688003F7D50CE0FFF75A
:100B7000ADFD064605E000BFFFF7A8FD801B642819
:100B8000F0D820688003F7D42878DFF860828007E7
:100B90004FF000093ED5DBF80010584611F00C0F5D
:100BA00009D00068C0F3810002280BD18D48001FD6
:100BB0000068400206D42068800715D5E86801283F
:100BC00009D111E0E868B8B10120C8F80000FFF7CA
:100BD0007DFD064605E002E1FFF778FD801B022857
:100BE000C0D820688007F7D52068296920F0F80070
:100BF00040EAC10020600DE0C8F80090FFF766FDF4
:100C0000064604E0FFF762FD801B02281FD820681B
:100C10008007F7D42878000722D5724E7448696996
:100C20006C3671B101210160FFF750FD074604E009
:100C3000FFF74CFDC01B022809D830688007F7D5A4
:100C40000EE0C0F80090FFF741FD074605E083E0A5
:100C5000FFF73CFDC01B02287ED830688007F7D420
:100C60002878400768D5DFF87CA100270AF1380A08
:100C7000DAF80000C0000BD4DAF8001041F080511F
:100C8000CAF80010DAF80000012700F08050009048
:100C9000584E3068C00510D4306840F48070306021
:100CA000FFF714FD009005E0FFF710FD0099401AD2
:100CB000022851D83068C005F6D54A4EA868683673
:100CC00001280FD00528306810D020F001003060D6
:100CD000306820F004003060A868B8B1FFF7F6FC77
:100CE00000900FE0306840F00100F4E740F00400AD
:100CF0003060F7E7FFF7EAFC0099411A41F28830CB
:100D0000814264D830688007F4D50EE0FFF7DEFC3E
:100D1000009007E0FFF7DAFC0099411A41F28830B1
:100D2000814254D830688007F4D42FB1DAF800102B
:100D300021F08051CAF80010A869C0B3DBF8001098
:100D4000C1F3810102294AD00228484607D0C8F8D9
:100D50006000FFF7BBFC00E039E005463AE047469B
:100D6000C8F86000FFF7B2FC064604E0FFF7AEFCEF
:100D7000801B02282BD820688001F7D4D5E9070111
:100D80000843A96A1C4A490802EB01416A6A41EA20
:100D90008211084395F82C1040EA01611148001FA8
:100DA000016001203866FFF791FC054605E014E07C
:100DB000FFF78CFC401B022809D820688001F7D57A
:100DC0000BE000BFFFF782FC401B022802D9032082
:100DD000BDE8F88F20688001F4D40020F8E70120F6
:100DE000F6E70000083802400038024000004742A1
:100DF000800E4742007000400000FFFF4FF0E021EE
:100E00000428086903D020F004000861704740F00E
:100E10000400FAE710B5401EB0F1807F01D3012035
:100E200010BD4FF0E02460610F21601700F0A4F9BD
:100E30000020A06107202061002010BD704770478E
:100E400010B5040003D094F8390010B107E0012078
:100E500010BD002084F83800204600F00CF8022075
:100E600084F83900211D206800F024FA012084F85C
:100E70003900002010BD70470168CA6842F00102C5
:100E8000CA600068016841F00101016000207047FC
:100E9000704770B50446006801694FF00005C9430A
:100EA000890715D4C168C943890711D4E91E0161B6
:100EB00001202076206880698007204602D0FFF755
:100EC000E7FF04E000F098F8204600F096F8257659
:100ED00020680169C943490717D4C168C943490754
:100EE00013D46FF00401016102202076206880692C
:100EF00010F4407F204602D0FFF7CAFF04E000F064
:100F00007BF8204600F079F8257620680169C9430E
:100F1000090716D4C168C943090712D46FF0080144
:100F20000161042020762068C0698007204602D035
:100F3000FFF7AEFF04E000F05FF8204600F05DF838
:100F4000257620680169C943C90617D4C168C94319
:100F5000C90613D46FF010010161082020762068C3
:100F6000C06910F4407F204602D0FFF791FF04E0F3
:100F700000F042F8204600F040F82576206801692C
:100F8000C943C90708D1C168C943C90704D1891E2B
:100F90000161204600F032F820680169C943090662
:100FA00009D4C168C943090605D46FF08001016105
:100FB0002046FFF743FF20680169C943490609D469
:100FC000C168C943490605D46FF04001016120465C
:100FD00000F01EF820680169C94389060BD4C16876
:100FE000C943890607D46FF0200101612046BDE89E
:100FF0007040FFF724BF70BD704770470068034919
:10100000884201D1FFF792BB704700000000014009
:10101000704700000E4810B50C4901601021416076
:1010200000218160C1600161416101764176817674
:10103000C17601774177FFF795F9002805D0BDE823
:1010400010404F2103A000F095B910BD006400408E
:10105000880000202E2E2F436F72652F5372632F4E
:1010600063616E2E63000000084910B506480860F1
:101070000846FFF72BFA002805D0BDE810404221B2
:1010800003A000F077B910BD00300240000000203E
:101090002E2E2F436F72652F5372632F6372632E50
:1010A0006300000030B58FB0142215496846FFF781
:1010B00016F90021684600F09EF9124C10491422DE
:1010C0002060143105A8FFF70AF9002105A800F0F7
:1010D00092F90B4D6060103DD5E90001CDE90A01A0
:1010E00000210AA800F079F9A060D5E90201CDE954
:1010F0000C0100210CA800F070F9E0600FB030BDC9
:10110000501F000808000020094808B5016841F098
:1011100080010160016801F080010091016841F0E7
:1011200001010160006800F00100009008BD0000AE
:10113000303802400A4810B508490160002141607A
:1011400040F6FF718160FFF7C7FA002805D0BDE8BF
:101150001040442103A000F00DB910BD0030004044
:10116000B00000202E2E2F436F72652F5372632F15
:10117000697764672E6300000907090E002806DA04
:1011800000F00F0000F1E02080F8141D704700F11E
:10119000E02080F800147047012000F012F9FBE70E
:1011A000012000F00EF9FBE700F01BB930B527482D
:1011B00093B00025016841F080510160006800F0A3
:1011C000805011902248016841F48041016000681C
:1011D000022400F480401190092000904FF48030E8
:1011E00001900120CDE905048005079008200890B2
:1011F0004FF4A870CDE9090407200B906846FFF76B
:101200006FFC00B1FEE70CA90F2081E831004FF41C
:10121000A0500F904FF48050109005210CA8FFF7BC
:1012200061FB00B1FEE7FFF715FC4FF47A71B0FBEC
:10123000F1F0FFF7EFFD0420FFF7E0FD00220F21A2
:10124000501EFFF71DFB13B030BD000040380240B8
:10125000007000401048016841F4700101600F48BF
:10126000016841F0010101600C4A0021083211605F
:1012700002680B4B1A400260031D0A4A1A6002689A
:1012800022F48022026005480C30016002495806B1
:10129000803908607047000088ED00E000380240A7
:1012A000FFFFF6FE103000240148FFF7F2BD0000FA
:1012B000BC000020F0B50268234B244D244E254F7E
:1012C000254C4FF0804C984209D0604507D0A84289
:1012D00005D0B04203D0B84201D0A04204D122F0E0
:1012E000700E4A6842EA0E0298421BD0604519D03F
:1012F000A84217D0B04215D0B84213D0A04211D0A6
:10130000164DA8420ED0164DA8420BD0154DA8423E
:1013100008D0154DA84205D0144DA84202D0144D56
:10132000A84203D122F44075CA682A4302608A6841
:10133000C2620A688262984201D0A04201D1096962
:10134000016301214161F0BD000001400004004043
:1013500000080040000C0040000401400040014033
:10136000004401400048014000180040001C0040BB
:1013700000200040FEE702E008C8121F08C1002A52
:10138000FAD170477047002001E001C1121F002A06
:10139000FBD17047FFF7D2F9FFF708FFFFF7B4FE64
:1013A000FFF7C8FEFFF760FEFFF734FEFFF77AFE97
:1013B00000F00EF8FEE701460020842900D0C81C8A
:1013C000704710B500B9012000F002FB002010BDED
:1013D00010B500F023FB002010BD03C8002200F070
:1013E0000DBC10B500F09EFC012803D0BDE81040F4
:1013F00000F0EEBB10BD3EB504460D46B0F9080046
:10140000FFF7D9FF02A9CDE90001208A2B4682B25D
:10141000D4E9001000F05AFC012801D000203EBDA4
:1014200002983EBD2DE9F041184C0F460546E6688E
:101430002068001D00F016FA38B9206890F82C10CA
:1014400001208840216981432161681C07D137B19F
:101450002168BDE8F0410E48091D00F03BBA206844
:101460003544B5424560216805D2A06BBDE8F04126
:10147000091D00F017BA606B091D00F013FAA06A8D
:10148000854200D2A562BDE8F08100004C0000203A
:10149000D43D00202DE9F041054600F027FA2E4CFE
:1014A000A068401CA06020682C4F10B1606940B358
:1014B0002DE02560A068012829D1002606EB8600D2
:1014C00007EB800000F0E0F9761C072EF6D32348E6
:1014D0008C3000F0D9F92148A03000F0D5F91F4830
:1014E000B43000F0D1F91D48C83000F0CDF91B48E8
:1014F000DC3000F0C9F919488C3060631430A06307
:1015000005E02068E96AC06A884200D82560606A00
:10151000401C6062E96A0120226988401043206112
:1015200001EB810007EB8000291D00F0D3F900F0EA
:10153000FDF9606900280CD02068E96AC06A884219
:1015400007D207494FF080500860BFF34F8FBFF3B9
:101550006F8FBDE8F08100004C000020F83C0020B7
:1015600004ED00E070B5114E114C17E000F08AFA5E
:101570003068B8B100F082FC00F0B8F9F068C568D6
:10158000281D00F06FF9A068401EA0606068401E32
:10159000606000F0CBF9284600F00CF86068002885
:1015A000E4D170BD00F06AFCF8E70000C03D002007
:1015B0004C00002010B50446006B00F0CBF920462B
:1015C000BDE8104000F0C6B910484FF47051420712
:1015D00006D0C01D0D4920F00700411AC1F5705119
:1015E0000B4A00230144C2E900030839103A21F0F4
:1015F000070111604B600B600B1AC0E90013936088
:101600004FF000405360D06070470000F8000020A9
:1016100038000020074C4FF08056074DFFF7A2FF1F
:1016200020680128FAD92E60BFF34F8FBFF36F8F68
:10163000F4E70000F83C002004ED00E02DE9F0475D
:101640009A46DDE9098481466FF00303206B03EBC2
:1016500082021044089D20F00706700707D0502032
:1016600080F31188BFF34F8FBFF36F8FFEE723180E
:101670000A5C83F834200A5C12B1401C1028F6D3AF
:10168000002784F84370072D00D30625E562C4E9DE
:101690001157201D00F003F904F1180000F0FFF8C5
:1016A0002461C5F107006462A061E76484F85070AA
:1016B00052464946304600F0BFF82060B8F1000FAE
:1016C00001D0C8F80040BDE8F087000030B51149EE
:1016D00000E011460A688242FBD34B685C188442E2
:1016E00003D1406818444860084643681C18944277
:1016F00009D1084C103C2468A24209D052681A440F
:1017000042600A6812680260814200D0086030BD01
:101710000460F9E7380000200648416B096829B1E8
:10172000416BC968C9684968816270474FF0FF31F1
:10173000FAE700004C00002008484068401C4FF0C9
:10174000500080F3118804D0BFF34F8FBFF36F8F29
:10175000FEE7BFF34F8FBFF36F8FFEE7400000201F
:101760002DE9F0410546002700F08CF9314E306834
:1017700008B9FFF729FFF06805424BD1C5B308351A
:1017800068070ED005F00700C0F10800054468079F
:1017900007D0502080F31188BFF34F8FBFF36F8FB6
:1017A000FEE72DB37068854234D8224810300146D8
:1017B0000C6801E020460C466168A94202D221680B
:1017C0000029F7D131688C4224D007682168016074
:1017D00060680837411B10290FD96019420708D0EB
:1017E000502080F31188BFF34F8FBFF36F8FFEE758
:1017F00010E041606560FFF769FF61687068401A3A
:101800007060B268904200D2B060F068014300207E
:10181000C4E9000100F032FB780707D0502080F3C4
:101820001188BFF34F8FBFF36F8FFEE73846BDE8D7
:10183000F08100002800002010B5031F4FF08074D5
:101840001C601B1F21F001011960191F044B0B6064
:1018500014390A60091F6FF0020244380A6010BD93
:1018600039170008D0E9013201699A60D0E90123F3
:101870005A604A68824201D182684A60002202614D
:101880000868401E0860704700F108014FF0FF3201
:10189000C0E90112C16001610021016070470021AF
:1018A0000161704730B50B685A1C02D000F1080284
:1018B00002E0026904E02246546825689D42FAD994
:1018C00053684B6099608A60516008610168491CE7
:1018D000016030BD42684A6093688B6093685960CC
:1018E000916008610168491C01607047502080F3D5
:1018F0001188BFF34F8FBFF36F8F0A494868401CB0
:10190000486001280CD10848006810F0FF0F07D08C
:10191000502080F31188BFF34F8FBFF36F8FFEE726
:10192000704700004000002004ED00E008494868CE
:1019300028B1401E486001D180F3118870475020C3
:1019400080F31188BFF34F8FBFF36F8FFEE7000066
:101950004000002070B5002827D0144DA0F10804E5
:101960006168E868014207D1502080F31188BFF315
:101970004F8FBFF36F8FFEE722683AB1502080F39C
:101980001188BFF34F8FBFF36F8FFEE78143616014
:1019900000F078F860686968084468602046FFF7DE
:1019A00095FEBDE8704000F069BA70BD28000020C7
:1019B00006484FF47A710068B0FBF1F14FF0E02077
:1019C000491E416107210161704700002400002089
:1019D00010B5020014D00F48006B38B1502080F3CE
:1019E0001188BFF34F8FBFF36F8FFEE700F04AF807
:1019F00000211046FFF716FD00F040FA002807D13D
:101A000005494FF080500860BFF34F8FBFF36F8FD1
:101A100010BD00004C00002004ED00E01CB515488E
:101A20000024CDE900402346802213A1144800F091
:101A30004DF9012809D0401C1AD1502080F311889B
:101A4000BFF34F8FBFF36F8FFEE7502080F31188F5
:101A5000BFF34F8FBFF36F8F06484FF0FF312C3825
:101A6000816201214161C460BDE81C4000F040B8C2
:101A70001CBD00007800002049444C4500000000D7
:101A8000151600080248016B491C016370470000ED
:101A90004C0000201448016B11B10121C161704755
:101AA0000021C1610169B1FA81F1C1F11F0101EBAE
:101AB00081020E4951F822306BB101EB820101F134
:101AC00008034A6852684A609A4201D152684A60E3
:101AD000D16801607047502080F31188BFF34F8FA9
:101AE000BFF36F8FFEE700004C000020F83C0020A1
:101AF0001CB532480168324A914207D1502080F328
:101B00001188BFF34F8FBFF36F8FFEE700682C493A
:101B1000491E884207D1502080F31188BFF34F8FB0
:101B2000BFF36F8FFEE7274908780190FF20087008
:101B300008788DF800009DF800009DF8002000F066
:101B4000F000904207D0502080F31188BFF34F8FF0
:101B5000BFF36F8FFEE79DF800001B4A00F05000B6
:101B600010700720906005E09DF800305B008DF854
:101B70000030401E9DF800301B06F5D4000200F432
:101B8000E0609060019808700C482030016841F4D2
:101B900070010160016841F070410160FFF708FFCA
:101BA00000205060FEF71AFB0848016841F04041F0
:101BB0000160FEF703FB00201CBD000000ED00E00B
:101BC00071C20F4100E400E04000002034EF00E06B
:101BD00010B5502080F31188BFF34F8FBFF36F8F84
:101BE00000F0AEF818B104494FF0805008600020B2
:101BF00080F3118810BD000004ED00E070B50E46C2
:101C0000050013D0D6B105FB06F04830FFF7A8FD5C
:101C1000040009D004F1480120468EB10160C0E9FA
:101C20000F56012100F00EF8204670BD502080F3C1
:101C30001188BFF34F8FBFF36F8FFEE70020E4E7FB
:101C40000060ECE770B50D46040025D0FFF74EFEAE
:101C5000D4E90F20216802FB001161600021A1631B
:101C60002168A1600A46D4E90F01401E00FB012152
:101C7000E16021464FF0FF3001F8440F487004F155
:101C800010008DB1FFF700FE04F12400FFF7FCFD0A
:101C9000FFF74CFE012070BD502080F31188BFF388
:101CA0004F8FBFF36F8FFEE721690029F0D000F05E
:101CB000ABF80028ECD004494FF080500860BFF327
:101CC0004F8FBFF36F8FE3E704ED00E02DE9FF5F77
:101CD0008346DDE90E87994616468A469000FFF74F
:101CE0003FFD05001AD05420FFF73AFD040012D042
:101CF00025630021CDE90241CDE900874B463246FC
:101D000051465846FFF79AFC2046FFF7C3FB0120D7
:101D100004B0BDE8F09F2846FFF71CFE4FF0FF30EF
:101D2000F6E700000548416919B1006B18B10020C1
:101D30007047012070470220704700004C000020CF
:101D40002DE9F0412E4C0027206B40B1A069401CCA
:101D5000A061E06900B101273846BDE8F081E6687E
:101D6000761CE66013D1606B006838B1502080F3B8
:101D70001188BFF34F8FBFF36F8FFEE7606BA16BCE
:101D80006163A063206A401C2062FFF7C5FCA06A63
:101D9000DFF87080864209D3606B006880B1606BA9
:101DA000C068C568686886420DD2A0622068C06AB3
:101DB00000EB800158F821000128CAD90127C8E7A3
:101DC0004FF0FF30F1E7281DFFF74CFDA86A18B16E
:101DD00005F11800FFF746FDE86A012122698140FC
:101DE0001143216100EB800108EB8100291DFFF701
:101DF00071FDE86A2168C96A8842CDD30127CBE723
:101E00004C000020F83C00202DE9F041C068C46877
:101E1000ACB104F118000746FFF724FD154D286BFF
:101E20000126A0B139461448FFF754FDE06A29683D
:101E3000C96A88421CD90120EE61BDE8F0815020BA
:101E400080F31188BFF34F8FBFF36F8FFEE7201D24
:101E5000FFF708FDE16A2A6906FA01F010432861DC
:101E600001EB81000449B43901EB8000211DDBE75F
:101E70000020E2E74C000020AC3D00202DE9F047B7
:101E80002C4D00242746286B38B1FFF72FFD286B17
:101E9000401E2863286B40B146E0502080F3118833
:101EA000BFF34F8FBFF36F8FFEE7A968224E01206B
:101EB000D1B3A6F1B40980463068E8B1F068C468CF
:101EC00004F11800FFF7CEFC201DFFF7CBFCE06A01
:101ED0002A6908FA00F11143296100EB800109EB3E
:101EE0008100211DFFF7F6FCE06A2968C96A884273
:101EF000E2D3C5F81C80DFE70CB1FFF70DFCAC693D
:101F000044B14646FFF71CFF00B1EE61641EF9D1F3
:101F10000020A861E86938B108490127380708603E
:101F2000BFF34F8FBFF36F8FFFF700FD3846BDE85B
:101F3000F08700004C000020AC3D002004ED00E0E4
:101F4000100000000200000010000000020000006D
:101F5000901F000899110008000000000000000018
:101F600080000000981F0008A1110008FDFF00007C
:101F700000000000800000000000000000000000E1
:101F8000010203040607080900000000010203041F
:101F90005461736B310000005461736B32000000B8
:101FA000C01F000800000020880000007613000811
:101FB0004820000888000020607D0000861300088B
:101FC0000000000000000000000000000000000011
:101FD00000000000000000000100000010000000F0
:101FE000000000000024F4000000000000000000D9
:101FF00000000000000000000000000000000000E1
:1020000000000000AAAAAAAA000000000000000028
:1020100000000000000000000000000000000000C0
:1020200000000000000000000000000000000000B0
:1020300000000000000000000000000000000000A0
:08204000000000000000000098
:040000050800018965
:00000001FF
